{
  "address": "0x879DC3eD1A884f8B95823301efF8bD4b5f600A61",
  "abi": [
    {
      "inputs": [
        {
          "internalType": "address",
          "name": "_apeApeUSD",
          "type": "address"
        }
      ],
      "stateMutability": "nonpayable",
      "type": "constructor"
    },
    {
      "anonymous": false,
      "inputs": [
        {
          "indexed": true,
          "internalType": "address",
          "name": "previousOwner",
          "type": "address"
        },
        {
          "indexed": true,
          "internalType": "address",
          "name": "newOwner",
          "type": "address"
        }
      ],
      "name": "OwnershipTransferred",
      "type": "event"
    },
    {
      "anonymous": false,
      "inputs": [
        {
          "indexed": false,
          "internalType": "address",
          "name": "token",
          "type": "address"
        },
        {
          "indexed": false,
          "internalType": "uint256",
          "name": "amount",
          "type": "uint256"
        }
      ],
      "name": "Seize",
      "type": "event"
    },
    {
      "anonymous": false,
      "inputs": [
        {
          "indexed": false,
          "internalType": "address",
          "name": "tokenIn",
          "type": "address"
        },
        {
          "indexed": false,
          "internalType": "uint256",
          "name": "amountIn",
          "type": "uint256"
        },
        {
          "indexed": false,
          "internalType": "address",
          "name": "tokenOut",
          "type": "address"
        },
        {
          "indexed": false,
          "internalType": "uint256",
          "name": "amountOut",
          "type": "uint256"
        }
      ],
      "name": "Swap",
      "type": "event"
    },
    {
      "inputs": [],
      "name": "FRAX",
      "outputs": [
        {
          "internalType": "contract IERC20",
          "name": "",
          "type": "address"
        }
      ],
      "stateMutability": "view",
      "type": "function"
    },
    {
      "inputs": [],
      "name": "USDC",
      "outputs": [
        {
          "internalType": "contract IERC20",
          "name": "",
          "type": "address"
        }
      ],
      "stateMutability": "view",
      "type": "function"
    },
    {
      "inputs": [],
      "name": "apeApeUSD",
      "outputs": [
        {
          "internalType": "contract IApeToken",
          "name": "",
          "type": "address"
        }
      ],
      "stateMutability": "view",
      "type": "function"
    },
    {
      "inputs": [],
      "name": "apeUSD",
      "outputs": [
        {
          "internalType": "contract IERC20",
          "name": "",
          "type": "address"
        }
      ],
      "stateMutability": "view",
      "type": "function"
    },
    {
      "inputs": [],
      "name": "apeUSDCurvePool",
      "outputs": [
        {
          "internalType": "contract ICurveStableSwap",
          "name": "",
          "type": "address"
        }
      ],
      "stateMutability": "view",
      "type": "function"
    },
    {
      "inputs": [
        {
          "internalType": "uint256",
          "name": "amount",
          "type": "uint256"
        },
        {
          "internalType": "int128",
          "name": "inputCoinIndex",
          "type": "int128"
        }
      ],
      "name": "getAmountApuUSD",
      "outputs": [
        {
          "internalType": "uint256",
          "name": "",
          "type": "uint256"
        }
      ],
      "stateMutability": "view",
      "type": "function"
    },
    {
      "inputs": [
        {
          "internalType": "uint256",
          "name": "amount",
          "type": "uint256"
        },
        {
          "internalType": "int128",
          "name": "outputCoinIndex",
          "type": "int128"
        }
      ],
      "name": "getAmountStable",
      "outputs": [
        {
          "internalType": "uint256",
          "name": "",
          "type": "uint256"
        }
      ],
      "stateMutability": "view",
      "type": "function"
    },
    {
      "inputs": [],
      "name": "owner",
      "outputs": [
        {
          "internalType": "address",
          "name": "",
          "type": "address"
        }
      ],
      "stateMutability": "view",
      "type": "function"
    },
    {
      "inputs": [],
      "name": "renounceOwnership",
      "outputs": [],
      "stateMutability": "nonpayable",
      "type": "function"
    },
    {
      "inputs": [
        {
          "internalType": "address",
          "name": "token",
          "type": "address"
        },
        {
          "internalType": "uint256",
          "name": "amount",
          "type": "uint256"
        }
      ],
      "name": "seize",
      "outputs": [],
      "stateMutability": "nonpayable",
      "type": "function"
    },
    {
      "inputs": [
        {
          "internalType": "uint256",
          "name": "amount",
          "type": "uint256"
        },
        {
          "internalType": "int128",
          "name": "outputCoinIndex",
          "type": "int128"
        },
        {
          "internalType": "uint256",
          "name": "minOutput",
          "type": "uint256"
        }
      ],
      "name": "swapApeUSDForStable",
      "outputs": [],
      "stateMutability": "nonpayable",
      "type": "function"
    },
    {
      "inputs": [
        {
          "internalType": "uint256",
          "name": "amount",
          "type": "uint256"
        },
        {
          "internalType": "int128",
          "name": "inputCoinIndex",
          "type": "int128"
        },
        {
          "internalType": "uint256",
          "name": "minOutput",
          "type": "uint256"
        }
      ],
      "name": "swapStableForApeUSD",
      "outputs": [],
      "stateMutability": "nonpayable",
      "type": "function"
    },
    {
      "inputs": [
        {
          "internalType": "address",
          "name": "newOwner",
          "type": "address"
        }
      ],
      "name": "transferOwnership",
      "outputs": [],
      "stateMutability": "nonpayable",
      "type": "function"
    }
  ],
  "transactionHash": "0xdf56bbe36ac49ee2a2a36f3f054193d29b2e51e6edc79c6a786a0b9cd3d1eb30",
  "args": [
    "0xc7319dBc86A121313Bc48B7C54d0672756465031"
  ],
  "numDeployments": 2,
  "solcInputHash": "6386c567755abae32fed16cf3a421968",
  "bytecode": "0x60c06040523480156200001157600080fd5b506040516200170938038062001709833981016040819052620000349162000127565b6200003f33620000d7565b600180556001600160a01b038116608081905260408051636f307dc360e01b81529051636f307dc391600480820192602092909190829003018186803b1580156200008957600080fd5b505afa1580156200009e573d6000803e3d6000fd5b505050506040513d601f19601f82011682018060405250810190620000c4919062000127565b6001600160a01b031660a0525062000159565b600080546001600160a01b038381166001600160a01b0319831681178455604051919092169283917f8be0079c531659141344cd1fd0a4f28419497f9722a3daafe3b4186f6b6457e09190a35050565b6000602082840312156200013a57600080fd5b81516001600160a01b03811681146200015257600080fd5b9392505050565b60805160a051611528620001e160003960008181610132015281816104df015281816105700152818161066a015281816106da0152818161073e01528181610baa01528181610c1a01528181610c6d0152610da90152600081816101bd01528181610406015281816107dc01528181610d1201528181610dcb0152610e0c01526115286000f3fe608060405234801561001057600080fd5b50600436106100cf5760003560e01c80638da5cb5b1161008c578063d13f93a011610066578063d13f93a0146101df578063eb9253c0146101f2578063f2fde38b14610205578063f4a7d2581461021857600080fd5b80638da5cb5b1461018c578063b0e4556f1461019d578063ca613f8a146101b857600080fd5b806342cd365f146100d45780634ba549af146100fa5780636da2a1221461012d578063715018a6146101545780637fdaeb5a1461015e57806389a3027114610171575b600080fd5b6100e76100e236600461130f565b61022b565b6040519081526020015b60405180910390f35b6101157304b727c7e246ca70d496ecf52e6b6280f3c8077d81565b6040516001600160a01b0390911681526020016100f1565b6101157f000000000000000000000000000000000000000000000000000000000000000081565b61015c6102ca565b005b6100e761016c36600461130f565b6102de565b61011573a0b86991c6218b36c1d19d4a2e9eb0ce3606eb4881565b6000546001600160a01b0316610115565b61011573853d955acef822db058eb8505911ed77f175b99e81565b6101157f000000000000000000000000000000000000000000000000000000000000000081565b61015c6101ed36600461133b565b61032a565b61015c610200366004611387565b610734565b61015c6102133660046113b1565b61091e565b61015c61022636600461133b565b610997565b6040516307211ef760e01b8152600f82900b600482015260006024820181905260448201849052907304b727c7e246ca70d496ecf52e6b6280f3c8077d906307211ef7906064015b60206040518083038186803b15801561028b57600080fd5b505afa15801561029f573d6000803e3d6000fd5b505050506040513d601f19601f820116820180604052508101906102c391906113cc565b9392505050565b6102d2610ecc565b6102dc6000610f26565b565b6040516307211ef760e01b8152600060048201819052600f83900b602483015260448201849052907304b727c7e246ca70d496ecf52e6b6280f3c8077d906307211ef790606401610273565b610332610ecc565b6002600154141561038a5760405162461bcd60e51b815260206004820152601f60248201527f5265656e7472616e637947756172643a207265656e7472616e742063616c6c0060448201526064015b60405180910390fd5b60026001908155600f83900b14806103a5575081600f0b6002145b6103e45760405162461bcd60e51b815260206004820152601060248201526f3ab739bab83837b93a32b21031b7b4b760811b6044820152606401610381565b82156104c757604051634b8a352960e01b8152306004820152602481018490527f00000000000000000000000000000000000000000000000000000000000000006001600160a01b031690634b8a352990604401602060405180830381600087803b15801561045257600080fd5b505af1158015610466573d6000803e3d6000fd5b505050506040513d601f19601f8201168201806040525081019061048a91906113cc565b156104c75760405162461bcd60e51b815260206004820152600d60248201526c189bdc9c9bddc819985a5b1959609a1b6044820152606401610381565b6040516370a0823160e01b81523060048201526000907f00000000000000000000000000000000000000000000000000000000000000006001600160a01b0316906370a082319060240160206040518083038186803b15801561052957600080fd5b505afa15801561053d573d6000803e3d6000fd5b505050506040513d601f19601f8201168201806040525081019061056191906113cc565b90506105ab6001600160a01b037f0000000000000000000000000000000000000000000000000000000000000000167304b727c7e246ca70d496ecf52e6b6280f3c8077d83610f76565b604051635320bf6b60e11b8152600060048201819052600f85900b60248301526044820183905260648201849052907304b727c7e246ca70d496ecf52e6b6280f3c8077d9063a6417ed690608401602060405180830381600087803b15801561061357600080fd5b505af1158015610627573d6000803e3d6000fd5b505050506040513d601f19601f8201168201806040525081019061064b91906113cc565b905083600f0b600114156106bd576000805160206114d38339815191527f00000000000000000000000000000000000000000000000000000000000000008373853d955acef822db058eb8505911ed77f175b99e846040516106b094939291906113e5565b60405180910390a1610729565b83600f0b60021415610729576000805160206114d38339815191527f00000000000000000000000000000000000000000000000000000000000000008373a0b86991c6218b36c1d19d4a2e9eb0ce3606eb488460405161072094939291906113e5565b60405180910390a15b505060018055505050565b61073c610ecc565b7f00000000000000000000000000000000000000000000000000000000000000006001600160a01b0316826001600160a01b0316148061079857506001600160a01b03821673853d955acef822db058eb8505911ed77f175b99e145b806107bf57506001600160a01b03821673a0b86991c6218b36c1d19d4a2e9eb0ce3606eb48145b156108b2576040516305eff7ef60e21b81523060048201526000907f00000000000000000000000000000000000000000000000000000000000000006001600160a01b0316906317bfdfbc90602401602060405180830381600087803b15801561082857600080fd5b505af115801561083c573d6000803e3d6000fd5b505050506040513d601f19601f8201168201806040525081019061086091906113cc565b905080156108b05760405162461bcd60e51b815260206004820152601760248201527f626f72726f772062616c616e6365206e6f74207a65726f0000000000000000006044820152606401610381565b505b6108d86108c76000546001600160a01b031690565b6001600160a01b0384169083611070565b604080516001600160a01b0384168152602081018390527f4051ba94e08bb094159fc38391422b4b8ccfd2b1f8919c0eb37bb042d4b9cd8e910160405180910390a15050565b610926610ecc565b6001600160a01b03811661098b5760405162461bcd60e51b815260206004820152602660248201527f4f776e61626c653a206e6577206f776e657220697320746865207a65726f206160448201526564647265737360d01b6064820152608401610381565b61099481610f26565b50565b61099f610ecc565b600260015414156109f25760405162461bcd60e51b815260206004820152601f60248201527f5265656e7472616e637947756172643a207265656e7472616e742063616c6c006044820152606401610381565b60026001908155600f83900b1480610a0d575081600f0b6002145b610a4c5760405162461bcd60e51b815260206004820152601060248201526f3ab739bab83837b93a32b21031b7b4b760811b6044820152606401610381565b8215610c555781600f0b60011415610a9657610a9173853d955acef822db058eb8505911ed77f175b99e7304b727c7e246ca70d496ecf52e6b6280f3c8077d85610f76565b610ad5565b81600f0b60021415610ad557610ad573a0b86991c6218b36c1d19d4a2e9eb0ce3606eb487304b727c7e246ca70d496ecf52e6b6280f3c8077d85610f76565b604051635320bf6b60e11b8152600f83900b60048201526000602482018190526044820185905260648201839052907304b727c7e246ca70d496ecf52e6b6280f3c8077d9063a6417ed690608401602060405180830381600087803b158015610b3d57600080fd5b505af1158015610b51573d6000803e3d6000fd5b505050506040513d601f19601f82011682018060405250810190610b7591906113cc565b905082600f0b60011415610be7576000805160206114d383398151915273853d955acef822db058eb8505911ed77f175b99e857f000000000000000000000000000000000000000000000000000000000000000084604051610bda94939291906113e5565b60405180910390a1610c53565b82600f0b60021415610c53576000805160206114d383398151915273a0b86991c6218b36c1d19d4a2e9eb0ce3606eb48857f000000000000000000000000000000000000000000000000000000000000000084604051610c4a94939291906113e5565b60405180910390a15b505b6040516370a0823160e01b81523060048201526000907f00000000000000000000000000000000000000000000000000000000000000006001600160a01b0316906370a082319060240160206040518083038186803b158015610cb757600080fd5b505afa158015610ccb573d6000803e3d6000fd5b505050506040513d601f19601f82011682018060405250810190610cef91906113cc565b6040516305eff7ef60e21b81523060048201529091506000906001600160a01b037f000000000000000000000000000000000000000000000000000000000000000016906317bfdfbc90602401602060405180830381600087803b158015610d5657600080fd5b505af1158015610d6a573d6000803e3d6000fd5b505050506040513d601f19601f82011682018060405250810190610d8e91906113cc565b905080821115610d9c578091505b610df06001600160a01b037f0000000000000000000000000000000000000000000000000000000000000000167f000000000000000000000000000000000000000000000000000000000000000084610f76565b60405163157b6bd560e31b8152306004820152602481018390527f00000000000000000000000000000000000000000000000000000000000000006001600160a01b03169063abdb5ea890604401602060405180830381600087803b158015610e5857600080fd5b505af1158015610e6c573d6000803e3d6000fd5b505050506040513d601f19601f82011682018060405250810190610e9091906113cc565b156107295760405162461bcd60e51b815260206004820152600c60248201526b1c995c185e4819985a5b195960a21b6044820152606401610381565b6000546001600160a01b031633146102dc5760405162461bcd60e51b815260206004820181905260248201527f4f776e61626c653a2063616c6c6572206973206e6f7420746865206f776e65726044820152606401610381565b600080546001600160a01b038381166001600160a01b0319831681178455604051919092169283917f8be0079c531659141344cd1fd0a4f28419497f9722a3daafe3b4186f6b6457e09190a35050565b604051636eb1769f60e11b81523060048201526001600160a01b038381166024830152600091839186169063dd62ed3e9060440160206040518083038186803b158015610fc257600080fd5b505afa158015610fd6573d6000803e3d6000fd5b505050506040513d601f19601f82011682018060405250810190610ffa91906113cc565b611004919061140f565b6040516001600160a01b03851660248201526044810182905290915061106a90859063095ea7b360e01b906064015b60408051601f198184030181529190526020810180516001600160e01b03166001600160e01b0319909316929092179091526110a5565b50505050565b6040516001600160a01b0383166024820152604481018290526110a090849063a9059cbb60e01b90606401611033565b505050565b60006110fa826040518060400160405280602081526020017f5361666545524332303a206c6f772d6c6576656c2063616c6c206661696c6564815250856001600160a01b03166111779092919063ffffffff16565b8051909150156110a057808060200190518101906111189190611435565b6110a05760405162461bcd60e51b815260206004820152602a60248201527f5361666545524332303a204552433230206f7065726174696f6e20646964206e6044820152691bdd081cdd58d8d9595960b21b6064820152608401610381565b6060611186848460008561118e565b949350505050565b6060824710156111ef5760405162461bcd60e51b815260206004820152602660248201527f416464726573733a20696e73756666696369656e742062616c616e636520666f6044820152651c8818d85b1b60d21b6064820152608401610381565b6001600160a01b0385163b6112465760405162461bcd60e51b815260206004820152601d60248201527f416464726573733a2063616c6c20746f206e6f6e2d636f6e74726163740000006044820152606401610381565b600080866001600160a01b031685876040516112629190611483565b60006040518083038185875af1925050503d806000811461129f576040519150601f19603f3d011682016040523d82523d6000602084013e6112a4565b606091505b50915091506112b48282866112bf565b979650505050505050565b606083156112ce5750816102c3565b8251156112de5782518084602001fd5b8160405162461bcd60e51b8152600401610381919061149f565b8035600f81900b811461130a57600080fd5b919050565b6000806040838503121561132257600080fd5b82359150611332602084016112f8565b90509250929050565b60008060006060848603121561135057600080fd5b83359250611360602085016112f8565b9150604084013590509250925092565b80356001600160a01b038116811461130a57600080fd5b6000806040838503121561139a57600080fd5b6113a383611370565b946020939093013593505050565b6000602082840312156113c357600080fd5b6102c382611370565b6000602082840312156113de57600080fd5b5051919050565b6001600160a01b039485168152602081019390935292166040820152606081019190915260800190565b6000821982111561143057634e487b7160e01b600052601160045260246000fd5b500190565b60006020828403121561144757600080fd5b815180151581146102c357600080fd5b60005b8381101561147257818101518382015260200161145a565b8381111561106a5750506000910152565b60008251611495818460208701611457565b9190910192915050565b60208152600082518060208401526114be816040850160208701611457565b601f01601f1916919091016040019291505056fee5aa1cf5889c85b4317294c95f7f50feb57435a6defc7fa30823011ec18212a1a2646970667358221220f4db08655ff7864411d23b14a9e46c111b03dcca22dd6d38213787e161d3c17e64736f6c63430008090033",
  "devdoc": {
    "kind": "dev",
    "methods": {
      "owner()": {
        "details": "Returns the address of the current owner."
      },
      "renounceOwnership()": {
        "details": "Leaves the contract without owner. It will not be possible to call `onlyOwner` functions anymore. Can only be called by the current owner. NOTE: Renouncing ownership will leave the contract without an owner, thereby removing any functionality that is only available to the owner."
      },
      "transferOwnership(address)": {
        "details": "Transfers ownership of the contract to a new account (`newOwner`). Can only be called by the current owner."
      }
    },
    "version": 1
  },
  "userdoc": {
    "kind": "user",
    "methods": {},
    "version": 1
  },
  "storageLayout": {
    "storage": [
      {
        "astId": 7,
        "contract": "contracts/Stabilizer.sol:Stabilizer",
        "label": "_owner",
        "offset": 0,
        "slot": "0",
        "type": "t_address"
      },
      {
        "astId": 123,
        "contract": "contracts/Stabilizer.sol:Stabilizer",
        "label": "_status",
        "offset": 0,
        "slot": "1",
        "type": "t_uint256"
      }
    ],
    "types": {
      "t_address": {
        "encoding": "inplace",
        "label": "address",
        "numberOfBytes": "20"
      },
      "t_uint256": {
        "encoding": "inplace",
        "label": "uint256",
        "numberOfBytes": "32"
      }
    }
  }
}