{
  "address": "0x8E252A679C87313Ccefc9559F4f1c0e4062390B5",
  "abi": [
    {
      "inputs": [
        {
          "internalType": "address",
          "name": "_apeApeUSD",
          "type": "address"
        }
      ],
      "stateMutability": "nonpayable",
      "type": "constructor"
    },
    {
      "anonymous": false,
      "inputs": [
        {
          "indexed": true,
          "internalType": "address",
          "name": "previousOwner",
          "type": "address"
        },
        {
          "indexed": true,
          "internalType": "address",
          "name": "newOwner",
          "type": "address"
        }
      ],
      "name": "OwnershipTransferred",
      "type": "event"
    },
    {
      "anonymous": false,
      "inputs": [
        {
          "indexed": false,
          "internalType": "address",
          "name": "token",
          "type": "address"
        },
        {
          "indexed": false,
          "internalType": "uint256",
          "name": "amount",
          "type": "uint256"
        }
      ],
      "name": "Seize",
      "type": "event"
    },
    {
      "inputs": [],
      "name": "apeApeUSD",
      "outputs": [
        {
          "internalType": "contract IApeToken",
          "name": "",
          "type": "address"
        }
      ],
      "stateMutability": "view",
      "type": "function"
    },
    {
      "inputs": [],
      "name": "apeUSD",
      "outputs": [
        {
          "internalType": "contract IERC20",
          "name": "",
          "type": "address"
        }
      ],
      "stateMutability": "view",
      "type": "function"
    },
    {
      "inputs": [],
      "name": "apeUSDCurvePool",
      "outputs": [
        {
          "internalType": "contract ICurveStableSwap",
          "name": "",
          "type": "address"
        }
      ],
      "stateMutability": "view",
      "type": "function"
    },
    {
      "inputs": [],
      "name": "booster",
      "outputs": [
        {
          "internalType": "contract IBooster",
          "name": "",
          "type": "address"
        }
      ],
      "stateMutability": "view",
      "type": "function"
    },
    {
      "inputs": [],
      "name": "claimRewards",
      "outputs": [],
      "stateMutability": "nonpayable",
      "type": "function"
    },
    {
      "inputs": [
        {
          "internalType": "uint256",
          "name": "amount",
          "type": "uint256"
        },
        {
          "internalType": "uint256",
          "name": "minLP",
          "type": "uint256"
        }
      ],
      "name": "depositAndStake",
      "outputs": [],
      "stateMutability": "nonpayable",
      "type": "function"
    },
    {
      "inputs": [
        {
          "internalType": "uint256",
          "name": "amount",
          "type": "uint256"
        }
      ],
      "name": "getAmountApeUSD",
      "outputs": [
        {
          "internalType": "uint256",
          "name": "",
          "type": "uint256"
        }
      ],
      "stateMutability": "view",
      "type": "function"
    },
    {
      "inputs": [
        {
          "internalType": "uint256",
          "name": "amount",
          "type": "uint256"
        }
      ],
      "name": "getAmountCurveLP",
      "outputs": [
        {
          "internalType": "uint256",
          "name": "",
          "type": "uint256"
        }
      ],
      "stateMutability": "view",
      "type": "function"
    },
    {
      "inputs": [],
      "name": "owner",
      "outputs": [
        {
          "internalType": "address",
          "name": "",
          "type": "address"
        }
      ],
      "stateMutability": "view",
      "type": "function"
    },
    {
      "inputs": [],
      "name": "poolId",
      "outputs": [
        {
          "internalType": "uint256",
          "name": "",
          "type": "uint256"
        }
      ],
      "stateMutability": "view",
      "type": "function"
    },
    {
      "inputs": [],
      "name": "renounceOwnership",
      "outputs": [],
      "stateMutability": "nonpayable",
      "type": "function"
    },
    {
      "inputs": [
        {
          "internalType": "address",
          "name": "token",
          "type": "address"
        },
        {
          "internalType": "uint256",
          "name": "amount",
          "type": "uint256"
        }
      ],
      "name": "seize",
      "outputs": [],
      "stateMutability": "nonpayable",
      "type": "function"
    },
    {
      "inputs": [
        {
          "internalType": "address",
          "name": "newOwner",
          "type": "address"
        }
      ],
      "name": "transferOwnership",
      "outputs": [],
      "stateMutability": "nonpayable",
      "type": "function"
    },
    {
      "inputs": [
        {
          "internalType": "uint256",
          "name": "amount",
          "type": "uint256"
        },
        {
          "internalType": "uint256",
          "name": "minApeUSD",
          "type": "uint256"
        }
      ],
      "name": "unstakeAndWithdraw",
      "outputs": [],
      "stateMutability": "nonpayable",
      "type": "function"
    }
  ],
  "transactionHash": "0x0891bfd317ce72a54a35b808afdf6447fe41a4ca6b1534240c90e4b26ca11493",
  "args": [
    "0xc7319dBc86A121313Bc48B7C54d0672756465031"
  ],
  "numDeployments": 1,
  "solcInputHash": "3e3d50ae2476e58d6f449ce4544a2eee",
  "bytecode": "0x60c06040523480156200001157600080fd5b50604051620018ab380380620018ab833981016040819052620000349162000127565b6200003f33620000d7565b600180556001600160a01b038116608081905260408051636f307dc360e01b81529051636f307dc391600480820192602092909190829003018186803b1580156200008957600080fd5b505afa1580156200009e573d6000803e3d6000fd5b505050506040513d601f19601f82011682018060405250810190620000c4919062000127565b6001600160a01b031660a0525062000159565b600080546001600160a01b038381166001600160a01b0319831681178455604051919092169283917f8be0079c531659141344cd1fd0a4f28419497f9722a3daafe3b4186f6b6457e09190a35050565b6000602082840312156200013a57600080fd5b81516001600160a01b03811681146200015257600080fd5b9392505050565b60805160a0516116e6620001c560003960008181610185015281816104f90152818161063501528181610ac401528181610b5b0152610e050152600081816101f30152818161059e0152818161065701528181610698015281816109eb0152610e5501526116e66000f3fe608060405234801561001057600080fd5b50600436106100ea5760003560e01c8063715018a61161008c578063c6def07611610066578063c6def076146101d3578063ca613f8a146101ee578063eb9253c014610215578063f2fde38b1461022857600080fd5b8063715018a6146101a75780637969ee28146101af5780638da5cb5b146101c257600080fd5b8063372500ab116100c8578063372500ab1461013d5780633e0dc34e146101455780634ba549af1461014d5780636da2a1221461018057600080fd5b806310aec8f9146100ef5780631f0c2bf3146101045780632dc4c0f31461012a575b600080fd5b6101026100fd36600461143e565b61023b565b005b610117610112366004611460565b610764565b6040519081526020015b60405180910390f35b610117610138366004611460565b610807565b610102610849565b610117606781565b6101687304b727c7e246ca70d496ecf52e6b6280f3c8077d81565b6040516001600160a01b039091168152602001610121565b6101687f000000000000000000000000000000000000000000000000000000000000000081565b610102610955565b6101026101bd36600461143e565b610969565b6000546001600160a01b0316610168565b61016873f403c135812408bfbe8713b5a23a04b3d48aae3181565b6101687f000000000000000000000000000000000000000000000000000000000000000081565b61010261022336600461148e565b610dfb565b6101026102363660046114ba565b610f97565b610243611010565b6002600154141561029b5760405162461bcd60e51b815260206004820152601f60248201527f5265656e7472616e637947756172643a207265656e7472616e742063616c6c0060448201526064015b60405180910390fd5b6002600155604051631526fe2760e01b81526067600482015260009073f403c135812408bfbe8713b5a23a04b3d48aae3190631526fe279060240160c06040518083038186803b1580156102ee57600080fd5b505afa158015610302573d6000803e3d6000fd5b505050506040513d601f19601f8201168201806040525081019061032691906114ec565b5050935050505060008311156103b957604051636197390160e11b815260048101849052600060248201526001600160a01b0382169063c32e720290604401602060405180830381600087803b15801561037f57600080fd5b505af1158015610393573d6000803e3d6000fd5b505050506040513d601f19601f820116820180604052508101906103b7919061156e565b505b6040516370a0823160e01b81523060048201526000907304b727c7e246ca70d496ecf52e6b6280f3c8077d906370a082319060240160206040518083038186803b15801561040657600080fd5b505afa15801561041a573d6000803e3d6000fd5b505050506040513d601f19601f8201168201806040525081019061043e9190611589565b905080156104e15760405163081579a560e01b81526004810182905260006024820152604481018490523060648201527304b727c7e246ca70d496ecf52e6b6280f3c8077d9063081579a590608401602060405180830381600087803b1580156104a757600080fd5b505af11580156104bb573d6000803e3d6000fd5b505050506040513d601f19601f820116820180604052508101906104df9190611589565b505b6040516370a0823160e01b81523060048201526000907f00000000000000000000000000000000000000000000000000000000000000006001600160a01b0316906370a082319060240160206040518083038186803b15801561054357600080fd5b505afa158015610557573d6000803e3d6000fd5b505050506040513d601f19601f8201168201806040525081019061057b9190611589565b6040516305eff7ef60e21b81523060048201529091506000906001600160a01b037f000000000000000000000000000000000000000000000000000000000000000016906317bfdfbc90602401602060405180830381600087803b1580156105e257600080fd5b505af11580156105f6573d6000803e3d6000fd5b505050506040513d601f19601f8201168201806040525081019061061a9190611589565b905080821115610628578091505b61067c6001600160a01b037f0000000000000000000000000000000000000000000000000000000000000000167f00000000000000000000000000000000000000000000000000000000000000008461106a565b60405163157b6bd560e31b8152306004820152602481018390527f00000000000000000000000000000000000000000000000000000000000000006001600160a01b03169063abdb5ea890604401602060405180830381600087803b1580156106e457600080fd5b505af11580156106f8573d6000803e3d6000fd5b505050506040513d601f19601f8201168201806040525081019061071c9190611589565b156107585760405162461bcd60e51b815260206004820152600c60248201526b1c995c185e4819985a5b195960a21b6044820152606401610292565b50506001805550505050565b604080518082018252828152600060208201819052915163ed8e84f360e01b81527304b727c7e246ca70d496ecf52e6b6280f3c8077d9163ed8e84f3916107b191906001906004016115c5565b60206040518083038186803b1580156107c957600080fd5b505afa1580156107dd573d6000803e3d6000fd5b505050506040513d601f19601f820116820180604052508101906108019190611589565b92915050565b60405163cc2b27d760e01b815260048101829052600060248201819052907304b727c7e246ca70d496ecf52e6b6280f3c8077d9063cc2b27d7906044016107b1565b610851611010565b604051631526fe2760e01b81526067600482015260009073f403c135812408bfbe8713b5a23a04b3d48aae3190631526fe279060240160c06040518083038186803b15801561089f57600080fd5b505afa1580156108b3573d6000803e3d6000fd5b505050506040513d601f19601f820116820180604052508101906108d791906114ec565b50509350505050806001600160a01b0316633d18b9126040518163ffffffff1660e01b8152600401602060405180830381600087803b15801561091957600080fd5b505af115801561092d573d6000803e3d6000fd5b505050506040513d601f19601f82011682018060405250810190610951919061156e565b5050565b61095d611010565b6109676000611164565b565b610971611010565b600260015414156109c45760405162461bcd60e51b815260206004820152601f60248201527f5265656e7472616e637947756172643a207265656e7472616e742063616c6c006044820152606401610292565b60026001558115610aac57604051634b8a352960e01b8152306004820152602481018390527f00000000000000000000000000000000000000000000000000000000000000006001600160a01b031690634b8a352990604401602060405180830381600087803b158015610a3757600080fd5b505af1158015610a4b573d6000803e3d6000fd5b505050506040513d601f19601f82011682018060405250810190610a6f9190611589565b15610aac5760405162461bcd60e51b815260206004820152600d60248201526c189bdc9c9bddc819985a5b1959609a1b6044820152606401610292565b6040516370a0823160e01b81523060048201526000907f00000000000000000000000000000000000000000000000000000000000000006001600160a01b0316906370a082319060240160206040518083038186803b158015610b0e57600080fd5b505afa158015610b22573d6000803e3d6000fd5b505050506040513d601f19601f82011682018060405250810190610b469190611589565b90508015610c3657610b966001600160a01b037f0000000000000000000000000000000000000000000000000000000000000000167304b727c7e246ca70d496ecf52e6b6280f3c8077d8361106a565b60408051808201825282815260006020820152905163030f92d560e21b81527304b727c7e246ca70d496ecf52e6b6280f3c8077d91630c3e4b5491610be29190869030906004016115e2565b602060405180830381600087803b158015610bfc57600080fd5b505af1158015610c10573d6000803e3d6000fd5b505050506040513d601f19601f82011682018060405250810190610c349190611589565b505b6040516370a0823160e01b81523060048201526000907304b727c7e246ca70d496ecf52e6b6280f3c8077d906370a082319060240160206040518083038186803b158015610c8357600080fd5b505afa158015610c97573d6000803e3d6000fd5b505050506040513d601f19601f82011682018060405250810190610cbb9190611589565b90508015610df15760405163095ea7b360e01b815273f403c135812408bfbe8713b5a23a04b3d48aae316004820152602481018290527304b727c7e246ca70d496ecf52e6b6280f3c8077d9063095ea7b390604401602060405180830381600087803b158015610d2a57600080fd5b505af1158015610d3e573d6000803e3d6000fd5b505050506040513d601f19601f82011682018060405250810190610d62919061156e565b5060405163303acfe760e11b8152606760048201526001602482015273f403c135812408bfbe8713b5a23a04b3d48aae31906360759fce90604401602060405180830381600087803b158015610db757600080fd5b505af1158015610dcb573d6000803e3d6000fd5b505050506040513d601f19601f82011682018060405250810190610def919061156e565b505b5050600180555050565b610e03611010565b7f00000000000000000000000000000000000000000000000000000000000000006001600160a01b0316826001600160a01b03161415610f2b576040516305eff7ef60e21b81523060048201526000907f00000000000000000000000000000000000000000000000000000000000000006001600160a01b0316906317bfdfbc90602401602060405180830381600087803b158015610ea157600080fd5b505af1158015610eb5573d6000803e3d6000fd5b505050506040513d601f19601f82011682018060405250810190610ed99190611589565b90508015610f295760405162461bcd60e51b815260206004820152601760248201527f626f72726f772062616c616e6365206e6f74207a65726f0000000000000000006044820152606401610292565b505b610f51610f406000546001600160a01b031690565b6001600160a01b03841690836111b4565b604080516001600160a01b0384168152602081018390527f4051ba94e08bb094159fc38391422b4b8ccfd2b1f8919c0eb37bb042d4b9cd8e910160405180910390a15050565b610f9f611010565b6001600160a01b0381166110045760405162461bcd60e51b815260206004820152602660248201527f4f776e61626c653a206e6577206f776e657220697320746865207a65726f206160448201526564647265737360d01b6064820152608401610292565b61100d81611164565b50565b6000546001600160a01b031633146109675760405162461bcd60e51b815260206004820181905260248201527f4f776e61626c653a2063616c6c6572206973206e6f7420746865206f776e65726044820152606401610292565b604051636eb1769f60e11b81523060048201526001600160a01b038381166024830152600091839186169063dd62ed3e9060440160206040518083038186803b1580156110b657600080fd5b505afa1580156110ca573d6000803e3d6000fd5b505050506040513d601f19601f820116820180604052508101906110ee9190611589565b6110f8919061160f565b6040516001600160a01b03851660248201526044810182905290915061115e90859063095ea7b360e01b906064015b60408051601f198184030181529190526020810180516001600160e01b03166001600160e01b0319909316929092179091526111e9565b50505050565b600080546001600160a01b038381166001600160a01b0319831681178455604051919092169283917f8be0079c531659141344cd1fd0a4f28419497f9722a3daafe3b4186f6b6457e09190a35050565b6040516001600160a01b0383166024820152604481018290526111e490849063a9059cbb60e01b90606401611127565b505050565b600061123e826040518060400160405280602081526020017f5361666545524332303a206c6f772d6c6576656c2063616c6c206661696c6564815250856001600160a01b03166112bb9092919063ffffffff16565b8051909150156111e4578080602001905181019061125c919061156e565b6111e45760405162461bcd60e51b815260206004820152602a60248201527f5361666545524332303a204552433230206f7065726174696f6e20646964206e6044820152691bdd081cdd58d8d9595960b21b6064820152608401610292565b60606112ca84846000856112d4565b90505b9392505050565b6060824710156113355760405162461bcd60e51b815260206004820152602660248201527f416464726573733a20696e73756666696369656e742062616c616e636520666f6044820152651c8818d85b1b60d21b6064820152608401610292565b6001600160a01b0385163b61138c5760405162461bcd60e51b815260206004820152601d60248201527f416464726573733a2063616c6c20746f206e6f6e2d636f6e74726163740000006044820152606401610292565b600080866001600160a01b031685876040516113a89190611661565b60006040518083038185875af1925050503d80600081146113e5576040519150601f19603f3d011682016040523d82523d6000602084013e6113ea565b606091505b50915091506113fa828286611405565b979650505050505050565b606083156114145750816112cd565b8251156114245782518084602001fd5b8160405162461bcd60e51b8152600401610292919061167d565b6000806040838503121561145157600080fd5b50508035926020909101359150565b60006020828403121561147257600080fd5b5035919050565b6001600160a01b038116811461100d57600080fd5b600080604083850312156114a157600080fd5b82356114ac81611479565b946020939093013593505050565b6000602082840312156114cc57600080fd5b81356112cd81611479565b805180151581146114e757600080fd5b919050565b60008060008060008060c0878903121561150557600080fd5b865161151081611479565b602088015190965061152181611479565b604088015190955061153281611479565b606088015190945061154381611479565b608088015190935061155481611479565b915061156260a088016114d7565b90509295509295509295565b60006020828403121561158057600080fd5b6112cd826114d7565b60006020828403121561159b57600080fd5b5051919050565b8060005b600281101561115e5781518452602093840193909101906001016115a6565b606081016115d382856115a2565b82151560408301529392505050565b608081016115f082866115a2565b60408201939093526001600160a01b0391909116606090910152919050565b6000821982111561163057634e487b7160e01b600052601160045260246000fd5b500190565b60005b83811015611650578181015183820152602001611638565b8381111561115e5750506000910152565b60008251611673818460208701611635565b9190910192915050565b602081526000825180602084015261169c816040850160208701611635565b601f01601f1916919091016040019291505056fea264697066735822122062ecf03e3ac3dccc70d881837603304f8e78df539839504f351cf487880b1fe064736f6c63430008090033",
  "devdoc": {
    "kind": "dev",
    "methods": {
      "owner()": {
        "details": "Returns the address of the current owner."
      },
      "renounceOwnership()": {
        "details": "Leaves the contract without owner. It will not be possible to call `onlyOwner` functions anymore. Can only be called by the current owner. NOTE: Renouncing ownership will leave the contract without an owner, thereby removing any functionality that is only available to the owner."
      },
      "transferOwnership(address)": {
        "details": "Transfers ownership of the contract to a new account (`newOwner`). Can only be called by the current owner."
      }
    },
    "version": 1
  },
  "userdoc": {
    "kind": "user",
    "methods": {},
    "version": 1
  },
  "storageLayout": {
    "storage": [
      {
        "astId": 7,
        "contract": "contracts/StabilizerV2.sol:StabilizerV2",
        "label": "_owner",
        "offset": 0,
        "slot": "0",
        "type": "t_address"
      },
      {
        "astId": 123,
        "contract": "contracts/StabilizerV2.sol:StabilizerV2",
        "label": "_status",
        "offset": 0,
        "slot": "1",
        "type": "t_uint256"
      }
    ],
    "types": {
      "t_address": {
        "encoding": "inplace",
        "label": "address",
        "numberOfBytes": "20"
      },
      "t_uint256": {
        "encoding": "inplace",
        "label": "uint256",
        "numberOfBytes": "32"
      }
    }
  }
}